{
  "_format": "hh-sol-artifact-1",
  "contractName": "Swap",
  "sourceName": "contracts/Swap.sol",
  "abi": [
    {
      "inputs": [
        {
          "internalType": "address",
          "name": "admin",
          "type": "address"
        },
        {
          "internalType": "bool",
          "name": "_enable",
          "type": "bool"
        },
        {
          "internalType": "address",
          "name": "_remmitToken",
          "type": "address"
        },
        {
          "internalType": "address payable",
          "name": "_vaultToken",
          "type": "address"
        }
      ],
      "stateMutability": "nonpayable",
      "type": "constructor"
    },
    {
      "inputs": [],
      "name": "AccessControlBadConfirmation",
      "type": "error"
    },
    {
      "inputs": [
        {
          "internalType": "address",
          "name": "account",
          "type": "address"
        },
        {
          "internalType": "bytes32",
          "name": "neededRole",
          "type": "bytes32"
        }
      ],
      "name": "AccessControlUnauthorizedAccount",
      "type": "error"
    },
    {
      "inputs": [],
      "name": "ECDSAInvalidSignature",
      "type": "error"
    },
    {
      "inputs": [
        {
          "internalType": "uint256",
          "name": "length",
          "type": "uint256"
        }
      ],
      "name": "ECDSAInvalidSignatureLength",
      "type": "error"
    },
    {
      "inputs": [
        {
          "internalType": "bytes32",
          "name": "s",
          "type": "bytes32"
        }
      ],
      "name": "ECDSAInvalidSignatureS",
      "type": "error"
    },
    {
      "inputs": [],
      "name": "InvalidShortString",
      "type": "error"
    },
    {
      "inputs": [
        {
          "internalType": "string",
          "name": "str",
          "type": "string"
        }
      ],
      "name": "StringTooLong",
      "type": "error"
    },
    {
      "anonymous": false,
      "inputs": [],
      "name": "EIP712DomainChanged",
      "type": "event"
    },
    {
      "anonymous": false,
      "inputs": [
        {
          "indexed": true,
          "internalType": "bytes32",
          "name": "role",
          "type": "bytes32"
        },
        {
          "indexed": true,
          "internalType": "bytes32",
          "name": "previousAdminRole",
          "type": "bytes32"
        },
        {
          "indexed": true,
          "internalType": "bytes32",
          "name": "newAdminRole",
          "type": "bytes32"
        }
      ],
      "name": "RoleAdminChanged",
      "type": "event"
    },
    {
      "anonymous": false,
      "inputs": [
        {
          "indexed": true,
          "internalType": "bytes32",
          "name": "role",
          "type": "bytes32"
        },
        {
          "indexed": true,
          "internalType": "address",
          "name": "account",
          "type": "address"
        },
        {
          "indexed": true,
          "internalType": "address",
          "name": "sender",
          "type": "address"
        }
      ],
      "name": "RoleGranted",
      "type": "event"
    },
    {
      "anonymous": false,
      "inputs": [
        {
          "indexed": true,
          "internalType": "bytes32",
          "name": "role",
          "type": "bytes32"
        },
        {
          "indexed": true,
          "internalType": "address",
          "name": "account",
          "type": "address"
        },
        {
          "indexed": true,
          "internalType": "address",
          "name": "sender",
          "type": "address"
        }
      ],
      "name": "RoleRevoked",
      "type": "event"
    },
    {
      "anonymous": false,
      "inputs": [
        {
          "indexed": false,
          "internalType": "address",
          "name": "addressSigner",
          "type": "address"
        },
        {
          "indexed": false,
          "internalType": "address",
          "name": "addressClient",
          "type": "address"
        },
        {
          "indexed": false,
          "internalType": "address",
          "name": "addressVault",
          "type": "address"
        },
        {
          "indexed": false,
          "internalType": "address",
          "name": "addressSponsor",
          "type": "address"
        },
        {
          "indexed": false,
          "internalType": "address",
          "name": "tokenToExchange",
          "type": "address"
        },
        {
          "indexed": false,
          "internalType": "uint256",
          "name": "amountToExchange",
          "type": "uint256"
        },
        {
          "indexed": false,
          "internalType": "uint256",
          "name": "amountToReceiveVault",
          "type": "uint256"
        },
        {
          "indexed": false,
          "internalType": "uint256",
          "name": "amountToReceiveSponsor",
          "type": "uint256"
        },
        {
          "indexed": false,
          "internalType": "uint256",
          "name": "timeStamp",
          "type": "uint256"
        }
      ],
      "name": "SwapDone",
      "type": "event"
    },
    {
      "inputs": [],
      "name": "ADMIN_ROLE",
      "outputs": [
        {
          "internalType": "bytes32",
          "name": "",
          "type": "bytes32"
        }
      ],
      "stateMutability": "view",
      "type": "function"
    },
    {
      "inputs": [],
      "name": "DEFAULT_ADMIN_ROLE",
      "outputs": [
        {
          "internalType": "bytes32",
          "name": "",
          "type": "bytes32"
        }
      ],
      "stateMutability": "view",
      "type": "function"
    },
    {
      "inputs": [],
      "name": "SIGNER_ROLE",
      "outputs": [
        {
          "internalType": "bytes32",
          "name": "",
          "type": "bytes32"
        }
      ],
      "stateMutability": "view",
      "type": "function"
    },
    {
      "inputs": [],
      "name": "SUPER_ADMIN_ROLE",
      "outputs": [
        {
          "internalType": "bytes32",
          "name": "",
          "type": "bytes32"
        }
      ],
      "stateMutability": "view",
      "type": "function"
    },
    {
      "inputs": [],
      "name": "eip712Domain",
      "outputs": [
        {
          "internalType": "bytes1",
          "name": "fields",
          "type": "bytes1"
        },
        {
          "internalType": "string",
          "name": "name",
          "type": "string"
        },
        {
          "internalType": "string",
          "name": "version",
          "type": "string"
        },
        {
          "internalType": "uint256",
          "name": "chainId",
          "type": "uint256"
        },
        {
          "internalType": "address",
          "name": "verifyingContract",
          "type": "address"
        },
        {
          "internalType": "bytes32",
          "name": "salt",
          "type": "bytes32"
        },
        {
          "internalType": "uint256[]",
          "name": "extensions",
          "type": "uint256[]"
        }
      ],
      "stateMutability": "view",
      "type": "function"
    },
    {
      "inputs": [
        {
          "components": [
            {
              "internalType": "uint256",
              "name": "amountToReceiveVault",
              "type": "uint256"
            },
            {
              "internalType": "uint256",
              "name": "amountToReceiveSponsor",
              "type": "uint256"
            },
            {
              "internalType": "uint256",
              "name": "amountToExchange",
              "type": "uint256"
            },
            {
              "internalType": "address",
              "name": "tokenToExchange",
              "type": "address"
            },
            {
              "internalType": "address",
              "name": "sponsor",
              "type": "address"
            },
            {
              "internalType": "uint256",
              "name": "validUntil",
              "type": "uint256"
            },
            {
              "internalType": "bytes",
              "name": "signature",
              "type": "bytes"
            }
          ],
          "internalType": "struct Swap.Package",
          "name": "package",
          "type": "tuple"
        }
      ],
      "name": "exchange",
      "outputs": [],
      "stateMutability": "payable",
      "type": "function"
    },
    {
      "inputs": [
        {
          "internalType": "bytes32",
          "name": "role",
          "type": "bytes32"
        }
      ],
      "name": "getRoleAdmin",
      "outputs": [
        {
          "internalType": "bytes32",
          "name": "",
          "type": "bytes32"
        }
      ],
      "stateMutability": "view",
      "type": "function"
    },
    {
      "inputs": [
        {
          "internalType": "bytes32",
          "name": "role",
          "type": "bytes32"
        },
        {
          "internalType": "address",
          "name": "account",
          "type": "address"
        }
      ],
      "name": "grantRole",
      "outputs": [],
      "stateMutability": "nonpayable",
      "type": "function"
    },
    {
      "inputs": [
        {
          "internalType": "bytes32",
          "name": "role",
          "type": "bytes32"
        },
        {
          "internalType": "address",
          "name": "account",
          "type": "address"
        }
      ],
      "name": "hasRole",
      "outputs": [
        {
          "internalType": "bool",
          "name": "",
          "type": "bool"
        }
      ],
      "stateMutability": "view",
      "type": "function"
    },
    {
      "inputs": [
        {
          "internalType": "address",
          "name": "",
          "type": "address"
        }
      ],
      "name": "nonces",
      "outputs": [
        {
          "internalType": "uint256",
          "name": "",
          "type": "uint256"
        }
      ],
      "stateMutability": "view",
      "type": "function"
    },
    {
      "inputs": [
        {
          "internalType": "bytes32",
          "name": "role",
          "type": "bytes32"
        },
        {
          "internalType": "address",
          "name": "callerConfirmation",
          "type": "address"
        }
      ],
      "name": "renounceRole",
      "outputs": [],
      "stateMutability": "nonpayable",
      "type": "function"
    },
    {
      "inputs": [
        {
          "internalType": "bytes32",
          "name": "role",
          "type": "bytes32"
        },
        {
          "internalType": "address",
          "name": "account",
          "type": "address"
        }
      ],
      "name": "revokeRole",
      "outputs": [],
      "stateMutability": "nonpayable",
      "type": "function"
    },
    {
      "inputs": [
        {
          "internalType": "bytes4",
          "name": "interfaceId",
          "type": "bytes4"
        }
      ],
      "name": "supportsInterface",
      "outputs": [
        {
          "internalType": "bool",
          "name": "",
          "type": "bool"
        }
      ],
      "stateMutability": "view",
      "type": "function"
    },
    {
      "inputs": [
        {
          "components": [
            {
              "internalType": "uint256",
              "name": "amountToReceiveVault",
              "type": "uint256"
            },
            {
              "internalType": "uint256",
              "name": "amountToReceiveSponsor",
              "type": "uint256"
            },
            {
              "internalType": "uint256",
              "name": "amountToExchange",
              "type": "uint256"
            },
            {
              "internalType": "address",
              "name": "tokenToExchange",
              "type": "address"
            },
            {
              "internalType": "address",
              "name": "sponsor",
              "type": "address"
            },
            {
              "internalType": "uint256",
              "name": "validUntil",
              "type": "uint256"
            },
            {
              "internalType": "bytes",
              "name": "signature",
              "type": "bytes"
            }
          ],
          "internalType": "struct Swap.Package",
          "name": "packageToVerifiy",
          "type": "tuple"
        }
      ],
      "name": "verifyPackage",
      "outputs": [
        {
          "internalType": "bool",
          "name": "result",
          "type": "bool"
        }
      ],
      "stateMutability": "view",
      "type": "function"
    }
  ],
  "bytecode": "0x6101606040523480156200001257600080fd5b5060405162001da338038062001da38339810160408190526200003591620003d9565b6040518060400160405280600a81526020016914ddd85c14995b5b5a5d60b21b815250604051806040016040528060018152602001603160f81b815250620000886001836200024260201b90919060201c565b610120526200009981600262000242565b61014052815160208084019190912060e052815190820120610100524660a0526200012760e05161010051604080517f8b73c3c69bb8fe3d512ecc4cf759cc79239f7b179b0ffacaa9a75d522b39400f60208201529081019290925260608201524660808201523060a082015260009060c00160405160208183030381529060405280519060200120905090565b60805250503060c0526200015a60008051602062001d8383398151915260008051602062001d638339815191526200027b565b6200017660008051602062001d6383398151915260006200027b565b620001b17fe2f4eaae4a9751e85a3e4a7b9587827a877f29914755229b07a7b2da98285f7060008051602062001d838339815191526200027b565b620001be600085620002c6565b50620001da60008051602062001d6383398151915285620002c6565b50620001f660008051602062001d8383398151915285620002c6565b50600480546001600160a81b031916600160a01b941515949094026001600160a01b0319908116949094176001600160a01b03938416179055600580549093169116179055506200062e565b600060208351101562000262576200025a8362000374565b905062000275565b816200026f8482620004ec565b5060ff90505b92915050565b600082815260208190526040808220600101805490849055905190918391839186917fbd79b86ffe0ab8e8776151514217cd7cacd52c909f66475c3af44e129f0b00ff9190a4505050565b6000828152602081815260408083206001600160a01b038516845290915281205460ff166200036b576000838152602081815260408083206001600160a01b03861684529091529020805460ff19166001179055620003223390565b6001600160a01b0316826001600160a01b0316847f2f8788117e7eff1d82e926ec794901d17c78024a50270940304540a733656f0d60405160405180910390a450600162000275565b50600062000275565b600080829050601f81511115620003ab578260405163305a27a960e01b8152600401620003a29190620005b8565b60405180910390fd5b8051620003b88262000609565b179392505050565b6001600160a01b0381168114620003d657600080fd5b50565b60008060008060808587031215620003f057600080fd5b8451620003fd81620003c0565b602086015190945080151581146200041457600080fd5b60408601519093506200042781620003c0565b60608601519092506200043a81620003c0565b939692955090935050565b634e487b7160e01b600052604160045260246000fd5b600181811c908216806200047057607f821691505b6020821081036200049157634e487b7160e01b600052602260045260246000fd5b50919050565b601f821115620004e7576000816000526020600020601f850160051c81016020861015620004c25750805b601f850160051c820191505b81811015620004e357828155600101620004ce565b5050505b505050565b81516001600160401b0381111562000508576200050862000445565b62000520816200051984546200045b565b8462000497565b602080601f8311600181146200055857600084156200053f5750858301515b600019600386901b1c1916600185901b178555620004e3565b600085815260208120601f198616915b82811015620005895788860151825594840194600190910190840162000568565b5085821015620005a85787850151600019600388901b60f8161c191681555b5050505050600190811b01905550565b60006020808352835180602085015260005b81811015620005e857858101830151858201604001528201620005ca565b506000604082860101526040601f19601f8301168501019250505092915050565b80516020808301519190811015620004915760001960209190910360031b1b16919050565b60805160a05160c05160e0516101005161012051610140516116da620006896000396000610d9d01526000610d6b0152600061126d01526000611245015260006111a0015260006111ca015260006111f401526116da6000f3fe6080604052600436106100dd5760003560e01c806378effd091161007f57806391d148541161005957806391d1485414610287578063a1ebf35d146102cb578063a217fddf146102ff578063d547741f1461031457600080fd5b806378effd091461021f5780637ecebe001461023257806384b0196e1461025f57600080fd5b80632f2ff15d116100bb5780632f2ff15d1461017557806336568abe146101975780634460bdd6146101b757806375b238fc146101eb57600080fd5b806301ffc9a7146100e257806313c5737414610117578063248a9ca314610137575b600080fd5b3480156100ee57600080fd5b506101026100fd3660046113ce565b610334565b60405190151581526020015b60405180910390f35b34801561012357600080fd5b506101026101323660046113f8565b61039d565b34801561014357600080fd5b50610167610152366004611433565b60009081526020819052604090206001015490565b60405190815260200161010e565b34801561018157600080fd5b50610195610190366004611468565b61064a565b005b3480156101a357600080fd5b506101956101b2366004611468565b610675565b3480156101c357600080fd5b506101677f7613a25ecc738585a232ad50a301178f12b3ba8887d13e138b523c4269c4768981565b3480156101f757600080fd5b506101677fa49807205ce4d355092ef5a8a18f56e8913cf4a201fbe287825b095693c2177581565b61019561022d3660046113f8565b6106c6565b34801561023e57600080fd5b5061016761024d366004611494565b60036020526000908152604090205481565b34801561026b57600080fd5b50610274610b43565b60405161010e97969594939291906114f5565b34801561029357600080fd5b506101026102a2366004611468565b6000918252602082815260408084206001600160a01b0393909316845291905290205460ff1690565b3480156102d757600080fd5b506101677fe2f4eaae4a9751e85a3e4a7b9587827a877f29914755229b07a7b2da98285f7081565b34801561030b57600080fd5b50610167600081565b34801561032057600080fd5b5061019561032f366004611468565b610ba5565b60006001600160e01b031982167f7965db0b00000000000000000000000000000000000000000000000000000000148061039757507f01ffc9a7000000000000000000000000000000000000000000000000000000006001600160e01b03198316145b92915050565b6000806103a983610bca565b6001600160a01b03811660009081527f059f08e7d7ba1c82eddc57afae67f80df851baf38a099607a779825038c3ce5b602052604090205490915060ff1661045e5760405162461bcd60e51b815260206004820152602160248201527f5369676e617475726520696e76616c6964206f7220756e617574686f72697a6560448201527f640000000000000000000000000000000000000000000000000000000000000060648201526084015b60405180910390fd5b60045474010000000000000000000000000000000000000000900460ff166104ee5760405162461bcd60e51b815260206004820152602360248201527f436f6e74726163742069732064697361626c656420666f7220746865206d6f6d60448201527f656e7400000000000000000000000000000000000000000000000000000000006064820152608401610455565b600480546040517f70a0823100000000000000000000000000000000000000000000000000000000815230928101929092526001600160a01b0316906370a0823190602401602060405180830381865afa158015610550573d6000803e3d6000fd5b505050506040513d601f19601f8201168201806040525081019061057491906115aa565b836040013511156105ed5760405162461bcd60e51b815260206004820152602c60248201527f496e73756666696369656e742066756e6473206f662052656d6d697420746f2060448201527f7061792065786368616e676500000000000000000000000000000000000000006064820152608401610455565b428360a0013510156106415760405162461bcd60e51b815260206004820152601760248201527f546865207061636b6167652068617320657870697265640000000000000000006044820152606401610455565b50600192915050565b60008281526020819052604090206001015461066581610c2a565b61066f8383610c37565b50505050565b6001600160a01b03811633146106b7576040517f6697b23200000000000000000000000000000000000000000000000000000000815260040160405180910390fd5b6106c18282610ce1565b505050565b6106cf8161039d565b6106d857600080fd5b60006106e382610bca565b905060006106f76080840160608501611494565b6001600160a01b0316146109575760006107176080840160608501611494565b6040517fdd62ed3e0000000000000000000000000000000000000000000000000000000081523360048201523060248201526001600160a01b03919091169063dd62ed3e90604401602060405180830381865afa15801561077c573d6000803e3d6000fd5b505050506040513d601f19601f820116820180604052508101906107a091906115aa565b90506107b1833560208501356115c3565b8110156108005760405162461bcd60e51b815260206004820152601a60248201527f436865636b2074686520746f6b656e20616c6c6f77616e63652e0000000000006044820152606401610455565b6108106080840160608501611494565b6001600160a01b03166323b872dd3361082f60a0870160808801611494565b6040516001600160e01b031960e085901b1681526001600160a01b03928316600482015291166024820152602086013560448201526064016020604051808303816000875af1158015610886573d6000803e3d6000fd5b505050506040513d601f19601f820116820180604052508101906108aa91906115e4565b506108bb6080840160608501611494565b6005546040517f23b872dd0000000000000000000000000000000000000000000000000000000081523360048201526001600160a01b039182166024820152853560448201529116906323b872dd906064016020604051808303816000875af115801561092c573d6000803e3d6000fd5b505050506040513d601f19601f8201168201806040525081019061095091906115e4565b50506109fb565b610966823560208401356115c3565b34101561097257600080fd5b61098260a0830160808401611494565b6001600160a01b03166108fc83602001359081150290604051600060405180830381858888f193505050501580156109be573d6000803e3d6000fd5b506005546040516001600160a01b0390911690833580156108fc02916000818181858888f193505050501580156109f9573d6000803e3d6000fd5b505b60048054604080517fa9059cbb000000000000000000000000000000000000000000000000000000008152339381019390935284013560248301526001600160a01b03169063a9059cbb906044016020604051808303816000875af1158015610a68573d6000803e3d6000fd5b505050506040513d601f19601f82011682018060405250810190610a8c91906115e4565b506005547fa1371e47ba0597dd51ff1748899aabc16780c9741e8232908840ded9e1da6db190829033906001600160a01b0316610acf60a0870160808801611494565b610adf6080880160608901611494565b604080516001600160a01b03968716815294861660208087019190915293861685820152918516606085015290931660808301529185013560a0820152843560c08201529084013560e0820152426101008201526101200160405180910390a15050565b600060608060008060006060610b57610d64565b610b5f610d96565b604080516000808252602082019092527f0f000000000000000000000000000000000000000000000000000000000000009b939a50919850469750309650945092509050565b600082815260208190526040902060010154610bc081610c2a565b61066f8383610ce1565b600080610bd683610dc3565b9050610c2381610be960c0860186611606565b8080601f016020809104026020016040519081016040528093929190818152602001838380828437600092019190915250610e7692505050565b9392505050565b610c348133610ea0565b50565b6000828152602081815260408083206001600160a01b038516845290915281205460ff16610cd9576000838152602081815260408083206001600160a01b03861684529091529020805460ff19166001179055610c913390565b6001600160a01b0316826001600160a01b0316847f2f8788117e7eff1d82e926ec794901d17c78024a50270940304540a733656f0d60405160405180910390a4506001610397565b506000610397565b6000828152602081815260408083206001600160a01b038516845290915281205460ff1615610cd9576000838152602081815260408083206001600160a01b0386168085529252808320805460ff1916905551339286917ff6391f5c32d9c69d2a47ea670b442974b53935d1edc7fd64eb21e047a839171b9190a4506001610397565b6060610d917f00000000000000000000000000000000000000000000000000000000000000006001610f10565b905090565b6060610d917f00000000000000000000000000000000000000000000000000000000000000006002610f10565b60006103977f9c520e52060b7afd77d31838e6e71b63183de8af4dc8c9842f4d49c919dfa7cb833560208501356040860135610e056080880160608901611494565b610e1560a0890160808a01611494565b604080516020810197909752860194909452606085019290925260808401526001600160a01b0390811660a084810191909152911660c083015284013560e08201526101000160405160208183030381529060405280519060200120610fbb565b600080600080610e868686611003565b925092509250610e968282611050565b5090949350505050565b6000828152602081815260408083206001600160a01b038516845290915290205460ff16610f0c576040517fe2517d3f0000000000000000000000000000000000000000000000000000000081526001600160a01b038216600482015260248101839052604401610455565b5050565b606060ff8314610f2a57610f2383611154565b9050610397565b818054610f3690611654565b80601f0160208091040260200160405190810160405280929190818152602001828054610f6290611654565b8015610faf5780601f10610f8457610100808354040283529160200191610faf565b820191906000526020600020905b815481529060010190602001808311610f9257829003601f168201915b50505050509050610397565b6000610397610fc8611193565b836040517f19010000000000000000000000000000000000000000000000000000000000008152600281019290925260228201526042902090565b6000806000835160410361103d5760208401516040850151606086015160001a61102f888285856112be565b955095509550505050611049565b50508151600091506002905b9250925092565b60008260038111156110645761106461168e565b0361106d575050565b60018260038111156110815761108161168e565b036110b8576040517ff645eedf00000000000000000000000000000000000000000000000000000000815260040160405180910390fd5b60028260038111156110cc576110cc61168e565b03611106576040517ffce698f700000000000000000000000000000000000000000000000000000000815260048101829052602401610455565b600382600381111561111a5761111a61168e565b03610f0c576040517fd78bce0c00000000000000000000000000000000000000000000000000000000815260048101829052602401610455565b606060006111618361138d565b604080516020808252818301909252919250600091906020820181803683375050509182525060208101929092525090565b6000306001600160a01b037f0000000000000000000000000000000000000000000000000000000000000000161480156111ec57507f000000000000000000000000000000000000000000000000000000000000000046145b1561121657507f000000000000000000000000000000000000000000000000000000000000000090565b610d91604080517f8b73c3c69bb8fe3d512ecc4cf759cc79239f7b179b0ffacaa9a75d522b39400f60208201527f0000000000000000000000000000000000000000000000000000000000000000918101919091527f000000000000000000000000000000000000000000000000000000000000000060608201524660808201523060a082015260009060c00160405160208183030381529060405280519060200120905090565b600080807f7fffffffffffffffffffffffffffffff5d576e7357a4501ddfe92f46681b20a08411156112f95750600091506003905082611383565b604080516000808252602082018084528a905260ff891692820192909252606081018790526080810186905260019060a0016020604051602081039080840390855afa15801561134d573d6000803e3d6000fd5b5050604051601f1901519150506001600160a01b03811661137957506000925060019150829050611383565b9250600091508190505b9450945094915050565b600060ff8216601f811115610397576040517fb3512b0c00000000000000000000000000000000000000000000000000000000815260040160405180910390fd5b6000602082840312156113e057600080fd5b81356001600160e01b031981168114610c2357600080fd5b60006020828403121561140a57600080fd5b813567ffffffffffffffff81111561142157600080fd5b820160e08185031215610c2357600080fd5b60006020828403121561144557600080fd5b5035919050565b80356001600160a01b038116811461146357600080fd5b919050565b6000806040838503121561147b57600080fd5b8235915061148b6020840161144c565b90509250929050565b6000602082840312156114a657600080fd5b610c238261144c565b6000815180845260005b818110156114d5576020818501810151868301820152016114b9565b506000602082860101526020601f19601f83011685010191505092915050565b7fff00000000000000000000000000000000000000000000000000000000000000881681526000602060e0602084015261153260e084018a6114af565b8381036040850152611544818a6114af565b606085018990526001600160a01b038816608086015260a0850187905284810360c08601528551808252602080880193509091019060005b818110156115985783518352928401929184019160010161157c565b50909c9b505050505050505050505050565b6000602082840312156115bc57600080fd5b5051919050565b8082018082111561039757634e487b7160e01b600052601160045260246000fd5b6000602082840312156115f657600080fd5b81518015158114610c2357600080fd5b6000808335601e1984360301811261161d57600080fd5b83018035915067ffffffffffffffff82111561163857600080fd5b60200191503681900382131561164d57600080fd5b9250929050565b600181811c9082168061166857607f821691505b60208210810361168857634e487b7160e01b600052602260045260246000fd5b50919050565b634e487b7160e01b600052602160045260246000fdfea2646970667358221220ea11163be5fbd1915fca73ab4ae65b3cf47dacbfcb002513fae95328d2fc61e164736f6c634300081800337613a25ecc738585a232ad50a301178f12b3ba8887d13e138b523c4269c47689a49807205ce4d355092ef5a8a18f56e8913cf4a201fbe287825b095693c21775",
  "linkReferences": {},
  "deployedLinkReferences": {}
}